{
  "contractName": "IoTAccessControl",
  "abi": [
    {
      "inputs": [
        {
          "internalType": "address",
          "name": "",
          "type": "address"
        }
      ],
      "name": "devices",
      "outputs": [
        {
          "internalType": "address",
          "name": "deviceAddress",
          "type": "address"
        },
        {
          "internalType": "bool",
          "name": "isRegistered",
          "type": "bool"
        }
      ],
      "stateMutability": "view",
      "type": "function",
      "constant": true
    },
    {
      "inputs": [
        {
          "internalType": "address",
          "name": "",
          "type": "address"
        }
      ],
      "name": "managers",
      "outputs": [
        {
          "internalType": "address",
          "name": "managerAddress",
          "type": "address"
        },
        {
          "internalType": "bool",
          "name": "isRegistered",
          "type": "bool"
        }
      ],
      "stateMutability": "view",
      "type": "function",
      "constant": true
    },
    {
      "inputs": [
        {
          "internalType": "bytes32",
          "name": "",
          "type": "bytes32"
        }
      ],
      "name": "permissions",
      "outputs": [
        {
          "internalType": "address",
          "name": "subjectDevice",
          "type": "address"
        },
        {
          "internalType": "address",
          "name": "objectDevice",
          "type": "address"
        },
        {
          "internalType": "string",
          "name": "resource",
          "type": "string"
        },
        {
          "internalType": "string",
          "name": "permissionType",
          "type": "string"
        },
        {
          "internalType": "uint256",
          "name": "expirationTime",
          "type": "uint256"
        }
      ],
      "stateMutability": "view",
      "type": "function",
      "constant": true
    },
    {
      "inputs": [
        {
          "internalType": "address",
          "name": "_managerAddress",
          "type": "address"
        }
      ],
      "name": "registerManager",
      "outputs": [],
      "stateMutability": "nonpayable",
      "type": "function"
    },
    {
      "inputs": [
        {
          "internalType": "address",
          "name": "_managerAddress",
          "type": "address"
        },
        {
          "internalType": "address",
          "name": "_deviceAddress",
          "type": "address"
        }
      ],
      "name": "registerDevice",
      "outputs": [],
      "stateMutability": "nonpayable",
      "type": "function"
    },
    {
      "inputs": [
        {
          "internalType": "address",
          "name": "_managerAddress",
          "type": "address"
        },
        {
          "internalType": "address",
          "name": "_deviceAddress",
          "type": "address"
        }
      ],
      "name": "addManagerToDevice",
      "outputs": [],
      "stateMutability": "nonpayable",
      "type": "function"
    },
    {
      "inputs": [
        {
          "internalType": "address",
          "name": "_managerAddress",
          "type": "address"
        },
        {
          "internalType": "address",
          "name": "_deviceAddress",
          "type": "address"
        }
      ],
      "name": "removeManagerFromDevice",
      "outputs": [],
      "stateMutability": "nonpayable",
      "type": "function"
    },
    {
      "inputs": [
        {
          "internalType": "address",
          "name": "_managerAddress",
          "type": "address"
        },
        {
          "internalType": "address",
          "name": "_subjectDevice",
          "type": "address"
        },
        {
          "internalType": "address",
          "name": "_objectDevice",
          "type": "address"
        },
        {
          "internalType": "string",
          "name": "_resource",
          "type": "string"
        },
        {
          "internalType": "string",
          "name": "_permissionType",
          "type": "string"
        },
        {
          "internalType": "uint256",
          "name": "_expirationTime",
          "type": "uint256"
        }
      ],
      "name": "addAccessControl",
      "outputs": [],
      "stateMutability": "nonpayable",
      "type": "function"
    },
    {
      "inputs": [
        {
          "internalType": "address",
          "name": "_managerAddress",
          "type": "address"
        }
      ],
      "name": "deregisterManager",
      "outputs": [],
      "stateMutability": "nonpayable",
      "type": "function"
    },
    {
      "inputs": [
        {
          "internalType": "address",
          "name": "_deviceAddress",
          "type": "address"
        }
      ],
      "name": "deregisterDevice",
      "outputs": [],
      "stateMutability": "nonpayable",
      "type": "function"
    },
    {
      "inputs": [
        {
          "internalType": "address",
          "name": "_subjectDevice",
          "type": "address"
        },
        {
          "internalType": "address",
          "name": "_objectDevice",
          "type": "address"
        },
        {
          "internalType": "string",
          "name": "_resource",
          "type": "string"
        }
      ],
      "name": "revokePermission",
      "outputs": [],
      "stateMutability": "nonpayable",
      "type": "function"
    },
    {
      "inputs": [
        {
          "internalType": "address",
          "name": "_managerAddress",
          "type": "address"
        }
      ],
      "name": "queryManager",
      "outputs": [
        {
          "internalType": "address[]",
          "name": "",
          "type": "address[]"
        }
      ],
      "stateMutability": "view",
      "type": "function",
      "constant": true
    },
    {
      "inputs": [
        {
          "internalType": "address",
          "name": "_deviceAddress",
          "type": "address"
        }
      ],
      "name": "queryPermission",
      "outputs": [
        {
          "components": [
            {
              "internalType": "address",
              "name": "subjectDevice",
              "type": "address"
            },
            {
              "internalType": "address",
              "name": "objectDevice",
              "type": "address"
            },
            {
              "internalType": "string",
              "name": "resource",
              "type": "string"
            },
            {
              "internalType": "string",
              "name": "permissionType",
              "type": "string"
            },
            {
              "internalType": "uint256",
              "name": "expirationTime",
              "type": "uint256"
            }
          ],
          "internalType": "struct IoTAccessControl.Permission[]",
          "name": "",
          "type": "tuple[]"
        }
      ],
      "stateMutability": "view",
      "type": "function",
      "constant": true
    }
  ],
  "bytecode": "0x608060405234801561001057600080fd5b50612e5b806100206000396000f3fe608060405234801561001057600080fd5b50600436106100cf5760003560e01c8063c5cfe8941161008c578063e7b4cac611610066578063e7b4cac614610210578063f6b4e4ef14610241578063f7062c1b1461025d578063fdff9b4d14610279576100cf565b8063c5cfe894146101bc578063cc35ccd2146101d8578063da2a1119146101f4576100cf565b80632b2da97e146100d457806336cbf046146100f0578063470d24bc1461010c57806354ad635214610128578063b4d2388f14610158578063bc92a7001461018c575b600080fd5b6100ee60048036038101906100e99190611f7a565b6102aa565b005b61010a60048036038101906101059190611fa7565b610412565b005b6101266004803603810190610121919061212d565b610715565b005b610142600480360381019061013d9190611f7a565b6108d3565b60405161014f919061238b565b60405180910390f35b610172600480360381019061016d91906123e3565b610d6d565b604051610183959493929190612478565b60405180910390f35b6101a660048036038101906101a19190611f7a565b610ef3565b6040516101b39190612588565b60405180910390f35b6101d660048036038101906101d191906125d6565b611165565b005b6101f260048036038101906101ed9190611fa7565b61134a565b005b61020e60048036038101906102099190611fa7565b6117a4565b005b61022a60048036038101906102259190611f7a565b6119b2565b6040516102389291906126b6565b60405180910390f35b61025b60048036038101906102569190611f7a565b611a03565b005b61027760048036038101906102729190611f7a565b611aee565b005b610293600480360381019061028e9190611f7a565b611c29565b6040516102a19291906126b6565b60405180910390f35b6000808273ffffffffffffffffffffffffffffffffffffffff1673ffffffffffffffffffffffffffffffffffffffff16815260200190815260200160002060000160149054906101000a900460ff1615610339576040517f08c379a00000000000000000000000000000000000000000000000000000000081526004016103309061272b565b60405180910390fd5b60405180604001604052808273ffffffffffffffffffffffffffffffffffffffff168152602001600115158152506000808373ffffffffffffffffffffffffffffffffffffffff1673ffffffffffffffffffffffffffffffffffffffff16815260200190815260200160002060008201518160000160006101000a81548173ffffffffffffffffffffffffffffffffffffffff021916908373ffffffffffffffffffffffffffffffffffffffff16021790555060208201518160000160146101000a81548160ff02191690831515021790555090505050565b6000808373ffffffffffffffffffffffffffffffffffffffff1673ffffffffffffffffffffffffffffffffffffffff16815260200190815260200160002060000160149054906101000a900460ff166104a0576040517f08c379a000000000000000000000000000000000000000000000000000000000815260040161049790612797565b60405180910390fd5b600160008273ffffffffffffffffffffffffffffffffffffffff1673ffffffffffffffffffffffffffffffffffffffff16815260200190815260200160002060020160009054906101000a900460ff1615610530576040517f08c379a000000000000000000000000000000000000000000000000000000000815260040161052790612803565b60405180910390fd5b80600160008373ffffffffffffffffffffffffffffffffffffffff1673ffffffffffffffffffffffffffffffffffffffff16815260200190815260200160002060000160006101000a81548173ffffffffffffffffffffffffffffffffffffffff021916908373ffffffffffffffffffffffffffffffffffffffff160217905550600160008273ffffffffffffffffffffffffffffffffffffffff1673ffffffffffffffffffffffffffffffffffffffff168152602001908152602001600020600101829080600181540180825580915050600190039060005260206000200160009091909190916101000a81548173ffffffffffffffffffffffffffffffffffffffff021916908373ffffffffffffffffffffffffffffffffffffffff16021790555060018060008373ffffffffffffffffffffffffffffffffffffffff1673ffffffffffffffffffffffffffffffffffffffff16815260200190815260200160002060020160006101000a81548160ff0219169083151502179055506003819080600181540180825580915050600190039060005260206000200160009091909190916101000a81548173ffffffffffffffffffffffffffffffffffffffff021916908373ffffffffffffffffffffffffffffffffffffffff1602179055505050565b600083838360405160200161072c939291906128a7565b604051602081830303815290604052805190602001209050600073ffffffffffffffffffffffffffffffffffffffff166002600083815260200190815260200160002060000160009054906101000a900473ffffffffffffffffffffffffffffffffffffffff1673ffffffffffffffffffffffffffffffffffffffff16036107e9576040517f08c379a00000000000000000000000000000000000000000000000000000000081526004016107e09061292c565b60405180910390fd5b42600260008381526020019081526020016000206004015410610841576040517f08c379a000000000000000000000000000000000000000000000000000000000815260040161083890612998565b60405180910390fd5b60026000828152602001908152602001600020600080820160006101000a81549073ffffffffffffffffffffffffffffffffffffffff02191690556001820160006101000a81549073ffffffffffffffffffffffffffffffffffffffff02191690556002820160006108b39190611da9565b6003820160006108c39190611da9565b6004820160009055505050505050565b6060600160008373ffffffffffffffffffffffffffffffffffffffff1673ffffffffffffffffffffffffffffffffffffffff16815260200190815260200160002060020160009054906101000a900460ff16610964576040517f08c379a000000000000000000000000000000000000000000000000000000000815260040161095b90612a04565b60405180910390fd5b6000805b600480549050811015610a1c578373ffffffffffffffffffffffffffffffffffffffff1660026000600484815481106109a4576109a3612a24565b5b9060005260206000200154815260200190815260200160002060000160009054906101000a900473ffffffffffffffffffffffffffffffffffffffff1673ffffffffffffffffffffffffffffffffffffffff1603610a0b578180610a0790612a82565b9250505b80610a1590612a82565b9050610968565b5060008167ffffffffffffffff811115610a3957610a38612002565b5b604051908082528060200260200182016040528015610a7257816020015b610a5f611de9565b815260200190600190039081610a575790505b5090506000805b600480549050811015610d61578573ffffffffffffffffffffffffffffffffffffffff166002600060048481548110610ab557610ab4612a24565b5b9060005260206000200154815260200190815260200160002060000160009054906101000a900473ffffffffffffffffffffffffffffffffffffffff1673ffffffffffffffffffffffffffffffffffffffff1603610d50576002600060048381548110610b2557610b24612a24565b5b906000526020600020015481526020019081526020016000206040518060a00160405290816000820160009054906101000a900473ffffffffffffffffffffffffffffffffffffffff1673ffffffffffffffffffffffffffffffffffffffff1673ffffffffffffffffffffffffffffffffffffffff1681526020016001820160009054906101000a900473ffffffffffffffffffffffffffffffffffffffff1673ffffffffffffffffffffffffffffffffffffffff1673ffffffffffffffffffffffffffffffffffffffff168152602001600282018054610c0590612af9565b80601f0160208091040260200160405190810160405280929190818152602001828054610c3190612af9565b8015610c7e5780601f10610c5357610100808354040283529160200191610c7e565b820191906000526020600020905b815481529060010190602001808311610c6157829003601f168201915b50505050508152602001600382018054610c9790612af9565b80601f0160208091040260200160405190810160405280929190818152602001828054610cc390612af9565b8015610d105780601f10610ce557610100808354040283529160200191610d10565b820191906000526020600020905b815481529060010190602001808311610cf357829003601f168201915b50505050508152602001600482015481525050838381518110610d3657610d35612a24565b5b60200260200101819052508180610d4c90612a82565b9250505b80610d5a90612a82565b9050610a79565b50819350505050919050565b60026020528060005260406000206000915090508060000160009054906101000a900473ffffffffffffffffffffffffffffffffffffffff16908060010160009054906101000a900473ffffffffffffffffffffffffffffffffffffffff1690806002018054610ddc90612af9565b80601f0160208091040260200160405190810160405280929190818152602001828054610e0890612af9565b8015610e555780601f10610e2a57610100808354040283529160200191610e55565b820191906000526020600020905b815481529060010190602001808311610e3857829003601f168201915b505050505090806003018054610e6a90612af9565b80601f0160208091040260200160405190810160405280929190818152602001828054610e9690612af9565b8015610ee35780601f10610eb857610100808354040283529160200191610ee3565b820191906000526020600020905b815481529060010190602001808311610ec657829003601f168201915b5050505050908060040154905085565b60606000808373ffffffffffffffffffffffffffffffffffffffff1673ffffffffffffffffffffffffffffffffffffffff16815260200190815260200160002060000160149054906101000a900460ff16610f83576040517f08c379a0000000000000000000000000000000000000000000000000000000008152600401610f7a90612797565b60405180910390fd5b6000805b60038054905081101561100157610fdc8460038381548110610fac57610fab612a24565b5b9060005260206000200160009054906101000a900473ffffffffffffffffffffffffffffffffffffffff16611c7a565b15610ff0578180610fec90612a82565b9250505b80610ffa90612a82565b9050610f87565b5060008167ffffffffffffffff81111561101e5761101d612002565b5b60405190808252806020026020018201604052801561104c5781602001602082028036833780820191505090505b5090506000805b600380549050811015611159576110a8866003838154811061107857611077612a24565b5b9060005260206000200160009054906101000a900473ffffffffffffffffffffffffffffffffffffffff16611c7a565b1561114857600381815481106110c1576110c0612a24565b5b9060005260206000200160009054906101000a900473ffffffffffffffffffffffffffffffffffffffff168383815181106110ff576110fe612a24565b5b602002602001019073ffffffffffffffffffffffffffffffffffffffff16908173ffffffffffffffffffffffffffffffffffffffff1681525050818061114490612a82565b9250505b8061115290612a82565b9050611053565b50819350505050919050565b61116f8686611c7a565b6111ae576040517f08c379a00000000000000000000000000000000000000000000000000000000081526004016111a590612b9c565b60405180910390fd5b60008585856040516020016111c5939291906128a7565b6040516020818303038152906040528051906020012090506040518060a001604052808773ffffffffffffffffffffffffffffffffffffffff1681526020018673ffffffffffffffffffffffffffffffffffffffff168152602001858152602001848152602001838152506002600083815260200190815260200160002060008201518160000160006101000a81548173ffffffffffffffffffffffffffffffffffffffff021916908373ffffffffffffffffffffffffffffffffffffffff16021790555060208201518160010160006101000a81548173ffffffffffffffffffffffffffffffffffffffff021916908373ffffffffffffffffffffffffffffffffffffffff16021790555060408201518160020190805190602001906112ed929190611e44565b50606082015181600301908051906020019061130a929190611e44565b5060808201518160040155905050600481908060018154018082558091505060019003906000526020600020016000909190919091505550505050505050565b6113548282611c7a565b611393576040517f08c379a000000000000000000000000000000000000000000000000000000000815260040161138a90612c08565b60405180910390fd5b60018060008373ffffffffffffffffffffffffffffffffffffffff1673ffffffffffffffffffffffffffffffffffffffff168152602001908152602001600020600101805490501161141a576040517f08c379a000000000000000000000000000000000000000000000000000000000815260040161141190612c74565b60405180910390fd5b60008060005b600160008573ffffffffffffffffffffffffffffffffffffffff1673ffffffffffffffffffffffffffffffffffffffff1681526020019081526020016000206001018054905081101561153d578473ffffffffffffffffffffffffffffffffffffffff16600160008673ffffffffffffffffffffffffffffffffffffffff1673ffffffffffffffffffffffffffffffffffffffff16815260200190815260200160002060010182815481106114d8576114d7612a24565b5b9060005260206000200160009054906101000a900473ffffffffffffffffffffffffffffffffffffffff1673ffffffffffffffffffffffffffffffffffffffff160361152a578092506001915061153d565b808061153590612a82565b915050611420565b508061157e576040517f08c379a000000000000000000000000000000000000000000000000000000000815260040161157590612ce0565b60405180910390fd5b60008290505b60018060008673ffffffffffffffffffffffffffffffffffffffff1673ffffffffffffffffffffffffffffffffffffffff168152602001908152602001600020600101805490506115d59190612d00565b81101561171657600160008573ffffffffffffffffffffffffffffffffffffffff1673ffffffffffffffffffffffffffffffffffffffff16815260200190815260200160002060010160018261162b9190612d34565b8154811061163c5761163b612a24565b5b9060005260206000200160009054906101000a900473ffffffffffffffffffffffffffffffffffffffff16600160008673ffffffffffffffffffffffffffffffffffffffff1673ffffffffffffffffffffffffffffffffffffffff16815260200190815260200160002060010182815481106116bb576116ba612a24565b5b9060005260206000200160006101000a81548173ffffffffffffffffffffffffffffffffffffffff021916908373ffffffffffffffffffffffffffffffffffffffff160217905550808061170e90612a82565b915050611584565b50600160008473ffffffffffffffffffffffffffffffffffffffff1673ffffffffffffffffffffffffffffffffffffffff16815260200190815260200160002060010180548061176957611768612d8a565b5b6001900381819060005260206000200160006101000a81549073ffffffffffffffffffffffffffffffffffffffff0219169055905550505050565b6000808373ffffffffffffffffffffffffffffffffffffffff1673ffffffffffffffffffffffffffffffffffffffff16815260200190815260200160002060000160149054906101000a900460ff16611832576040517f08c379a000000000000000000000000000000000000000000000000000000000815260040161182990612797565b60405180910390fd5b600160008273ffffffffffffffffffffffffffffffffffffffff1673ffffffffffffffffffffffffffffffffffffffff16815260200190815260200160002060020160009054906101000a900460ff166118c1576040517f08c379a00000000000000000000000000000000000000000000000000000000081526004016118b890612a04565b60405180910390fd5b6118cb8282611c7a565b1561190b576040517f08c379a000000000000000000000000000000000000000000000000000000000815260040161190290612e05565b60405180910390fd5b600160008273ffffffffffffffffffffffffffffffffffffffff1673ffffffffffffffffffffffffffffffffffffffff168152602001908152602001600020600101829080600181540180825580915050600190039060005260206000200160009091909190916101000a81548173ffffffffffffffffffffffffffffffffffffffff021916908373ffffffffffffffffffffffffffffffffffffffff1602179055505050565b60016020528060005260406000206000915090508060000160009054906101000a900473ffffffffffffffffffffffffffffffffffffffff16908060020160009054906101000a900460ff16905082565b6000808273ffffffffffffffffffffffffffffffffffffffff1673ffffffffffffffffffffffffffffffffffffffff16815260200190815260200160002060000160149054906101000a900460ff16611a91576040517f08c379a0000000000000000000000000000000000000000000000000000000008152600401611a8890612797565b60405180910390fd5b60008060008373ffffffffffffffffffffffffffffffffffffffff1673ffffffffffffffffffffffffffffffffffffffff16815260200190815260200160002060000160146101000a81548160ff02191690831515021790555050565b600160008273ffffffffffffffffffffffffffffffffffffffff1673ffffffffffffffffffffffffffffffffffffffff16815260200190815260200160002060020160009054906101000a900460ff16611b7d576040517f08c379a0000000000000000000000000000000000000000000000000000000008152600401611b7490612a04565b60405180910390fd5b6000600160008373ffffffffffffffffffffffffffffffffffffffff1673ffffffffffffffffffffffffffffffffffffffff16815260200190815260200160002060020160006101000a81548160ff021916908315150217905550600160008273ffffffffffffffffffffffffffffffffffffffff1673ffffffffffffffffffffffffffffffffffffffff1681526020019081526020016000206001016000611c269190611eca565b50565b60006020528060005260406000206000915090508060000160009054906101000a900473ffffffffffffffffffffffffffffffffffffffff16908060000160149054906101000a900460ff16905082565b600080600090505b600160008473ffffffffffffffffffffffffffffffffffffffff1673ffffffffffffffffffffffffffffffffffffffff16815260200190815260200160002060010180549050811015611d9d578373ffffffffffffffffffffffffffffffffffffffff16600160008573ffffffffffffffffffffffffffffffffffffffff1673ffffffffffffffffffffffffffffffffffffffff1681526020019081526020016000206001018281548110611d3a57611d39612a24565b5b9060005260206000200160009054906101000a900473ffffffffffffffffffffffffffffffffffffffff1673ffffffffffffffffffffffffffffffffffffffff1603611d8a576001915050611da3565b8080611d9590612a82565b915050611c82565b50600090505b92915050565b508054611db590612af9565b6000825580601f10611dc75750611de6565b601f016020900490600052602060002090810190611de59190611eeb565b5b50565b6040518060a00160405280600073ffffffffffffffffffffffffffffffffffffffff168152602001600073ffffffffffffffffffffffffffffffffffffffff1681526020016060815260200160608152602001600081525090565b828054611e5090612af9565b90600052602060002090601f016020900481019282611e725760008555611eb9565b82601f10611e8b57805160ff1916838001178555611eb9565b82800160010185558215611eb9579182015b82811115611eb8578251825591602001919060010190611e9d565b5b509050611ec69190611eeb565b5090565b5080546000825590600052602060002090810190611ee89190611eeb565b50565b5b80821115611f04576000816000905550600101611eec565b5090565b6000604051905090565b600080fd5b600080fd5b600073ffffffffffffffffffffffffffffffffffffffff82169050919050565b6000611f4782611f1c565b9050919050565b611f5781611f3c565b8114611f6257600080fd5b50565b600081359050611f7481611f4e565b92915050565b600060208284031215611f9057611f8f611f12565b5b6000611f9e84828501611f65565b91505092915050565b60008060408385031215611fbe57611fbd611f12565b5b6000611fcc85828601611f65565b9250506020611fdd85828601611f65565b9150509250929050565b600080fd5b600080fd5b6000601f19601f8301169050919050565b7f4e487b7100000000000000000000000000000000000000000000000000000000600052604160045260246000fd5b61203a82611ff1565b810181811067ffffffffffffffff8211171561205957612058612002565b5b80604052505050565b600061206c611f08565b90506120788282612031565b919050565b600067ffffffffffffffff82111561209857612097612002565b5b6120a182611ff1565b9050602081019050919050565b82818337600083830152505050565b60006120d06120cb8461207d565b612062565b9050828152602081018484840111156120ec576120eb611fec565b5b6120f78482856120ae565b509392505050565b600082601f83011261211457612113611fe7565b5b81356121248482602086016120bd565b91505092915050565b60008060006060848603121561214657612145611f12565b5b600061215486828701611f65565b935050602061216586828701611f65565b925050604084013567ffffffffffffffff81111561218657612185611f17565b5b612192868287016120ff565b9150509250925092565b600081519050919050565b600082825260208201905092915050565b6000819050602082019050919050565b6121d181611f3c565b82525050565b600081519050919050565b600082825260208201905092915050565b60005b838110156122115780820151818401526020810190506121f6565b83811115612220576000848401525b50505050565b6000612231826121d7565b61223b81856121e2565b935061224b8185602086016121f3565b61225481611ff1565b840191505092915050565b6000819050919050565b6122728161225f565b82525050565b600060a08301600083015161229060008601826121c8565b5060208301516122a360208601826121c8565b50604083015184820360408601526122bb8282612226565b915050606083015184820360608601526122d58282612226565b91505060808301516122ea6080860182612269565b508091505092915050565b60006123018383612278565b905092915050565b6000602082019050919050565b60006123218261219c565b61232b81856121a7565b93508360208202850161233d856121b8565b8060005b85811015612379578484038952815161235a85826122f5565b945061236583612309565b925060208a01995050600181019050612341565b50829750879550505050505092915050565b600060208201905081810360008301526123a58184612316565b905092915050565b6000819050919050565b6123c0816123ad565b81146123cb57600080fd5b50565b6000813590506123dd816123b7565b92915050565b6000602082840312156123f9576123f8611f12565b5b6000612407848285016123ce565b91505092915050565b61241981611f3c565b82525050565b600082825260208201905092915050565b600061243b826121d7565b612445818561241f565b93506124558185602086016121f3565b61245e81611ff1565b840191505092915050565b6124728161225f565b82525050565b600060a08201905061248d6000830188612410565b61249a6020830187612410565b81810360408301526124ac8186612430565b905081810360608301526124c08185612430565b90506124cf6080830184612469565b9695505050505050565b600081519050919050565b600082825260208201905092915050565b6000819050602082019050919050565b600061251183836121c8565b60208301905092915050565b6000602082019050919050565b6000612535826124d9565b61253f81856124e4565b935061254a836124f5565b8060005b8381101561257b5781516125628882612505565b975061256d8361251d565b92505060018101905061254e565b5085935050505092915050565b600060208201905081810360008301526125a2818461252a565b905092915050565b6125b38161225f565b81146125be57600080fd5b50565b6000813590506125d0816125aa565b92915050565b60008060008060008060c087890312156125f3576125f2611f12565b5b600061260189828a01611f65565b965050602061261289828a01611f65565b955050604061262389828a01611f65565b945050606087013567ffffffffffffffff81111561264457612643611f17565b5b61265089828a016120ff565b935050608087013567ffffffffffffffff81111561267157612670611f17565b5b61267d89828a016120ff565b92505060a061268e89828a016125c1565b9150509295509295509295565b60008115159050919050565b6126b08161269b565b82525050565b60006040820190506126cb6000830185612410565b6126d860208301846126a7565b9392505050565b7f4d616e6167657220616c726561647920726567697374657265642e0000000000600082015250565b6000612715601b8361241f565b9150612720826126df565b602082019050919050565b6000602082019050818103600083015261274481612708565b9050919050565b7f4d616e61676572206973206e6f7420726567697374657265642e000000000000600082015250565b6000612781601a8361241f565b915061278c8261274b565b602082019050919050565b600060208201905081810360008301526127b081612774565b9050919050565b7f44657669636520616c726561647920726567697374657265642e000000000000600082015250565b60006127ed601a8361241f565b91506127f8826127b7565b602082019050919050565b6000602082019050818103600083015261281c816127e0565b9050919050565b60008160601b9050919050565b600061283b82612823565b9050919050565b600061284d82612830565b9050919050565b61286561286082611f3c565b612842565b82525050565b600081905092915050565b6000612881826121d7565b61288b818561286b565b935061289b8185602086016121f3565b80840191505092915050565b60006128b38286612854565b6014820191506128c38285612854565b6014820191506128d38284612876565b9150819050949350505050565b7f5065726d697373696f6e20646f6573206e6f742065786973742e000000000000600082015250565b6000612916601a8361241f565b9150612921826128e0565b602082019050919050565b6000602082019050818103600083015261294581612909565b9050919050565b7f5065726d697373696f6e20616c726561647920657870697265642e0000000000600082015250565b6000612982601b8361241f565b915061298d8261294c565b602082019050919050565b600060208201905081810360008301526129b181612975565b9050919050565b7f446576696365206973206e6f7420726567697374657265642e00000000000000600082015250565b60006129ee60198361241f565b91506129f9826129b8565b602082019050919050565b60006020820190508181036000830152612a1d816129e1565b9050919050565b7f4e487b7100000000000000000000000000000000000000000000000000000000600052603260045260246000fd5b7f4e487b7100000000000000000000000000000000000000000000000000000000600052601160045260246000fd5b6000612a8d8261225f565b91507fffffffffffffffffffffffffffffffffffffffffffffffffffffffffffffffff8203612abf57612abe612a53565b5b600182019050919050565b7f4e487b7100000000000000000000000000000000000000000000000000000000600052602260045260246000fd5b60006002820490506001821680612b1157607f821691505b602082108103612b2457612b23612aca565b5b50919050565b7f4e6f742061206d616e61676572206f6620746865207375626a6563742064657660008201527f6963652e00000000000000000000000000000000000000000000000000000000602082015250565b6000612b8660248361241f565b9150612b9182612b2a565b604082019050919050565b60006020820190508181036000830152612bb581612b79565b9050919050565b7f4e6f742061206d616e61676572206f6620746865206465766963652e00000000600082015250565b6000612bf2601c8361241f565b9150612bfd82612bbc565b602082019050919050565b60006020820190508181036000830152612c2181612be5565b9050919050565b7f43616e6e6f742072656d6f766520746865206c617374206d616e616765722e00600082015250565b6000612c5e601f8361241f565b9150612c6982612c28565b602082019050919050565b60006020820190508181036000830152612c8d81612c51565b9050919050565b7f4d616e61676572206e6f7420666f756e642e0000000000000000000000000000600082015250565b6000612cca60128361241f565b9150612cd582612c94565b602082019050919050565b60006020820190508181036000830152612cf981612cbd565b9050919050565b6000612d0b8261225f565b9150612d168361225f565b925082821015612d2957612d28612a53565b5b828203905092915050565b6000612d3f8261225f565b9150612d4a8361225f565b9250827fffffffffffffffffffffffffffffffffffffffffffffffffffffffffffffffff03821115612d7f57612d7e612a53565b5b828201905092915050565b7f4e487b7100000000000000000000000000000000000000000000000000000000600052603160045260246000fd5b7f416c72656164792061206d616e61676572206f6620746865206465766963652e600082015250565b6000612def60208361241f565b9150612dfa82612db9565b602082019050919050565b60006020820190508181036000830152612e1e81612de2565b905091905056fea264697066735822122074df3f99b9bead1d062f0b1f4fd41a7d26ef3075802dd28dde93dc17530b6e7364736f6c634300080d0033",
  "immutableReferences": {},
  "source": "pragma solidity ^0.8.13;\r\n\r\ncontract IoTAccessControl {\r\n    struct Manager {\r\n        address managerAddress;\r\n        bool isRegistered;\r\n    }\r\n\r\n    struct Device {\r\n        address deviceAddress;\r\n        address[] managers;\r\n        bool isRegistered;\r\n    }\r\n\r\n    struct Permission {\r\n        address subjectDevice;\r\n        address objectDevice;\r\n        string resource;\r\n        string permissionType; // \"read\", \"write\", \"execute\"\r\n        uint expirationTime;\r\n    }\r\n\r\n    mapping(address => Manager) public managers;\r\n    mapping(address => Device) public devices;\r\n    mapping(bytes32 => Permission) public permissions;\r\n\r\n    // Register a new manager\r\n    function registerManager(address _managerAddress) public {\r\n        require(!managers[_managerAddress].isRegistered, \"Manager already registered.\");\r\n        managers[_managerAddress] = Manager({managerAddress: _managerAddress, isRegistered: true});\r\n    }\r\n\r\n    // Register a new device\r\n    function registerDevice(address _managerAddress, address _deviceAddress) public {\r\n        require(managers[_managerAddress].isRegistered, \"Manager is not registered.\");\r\n        require(!devices[_deviceAddress].isRegistered, \"Device already registered.\");\r\n        devices[_deviceAddress].deviceAddress = _deviceAddress;\r\n        devices[_deviceAddress].managers.push(_managerAddress);\r\n        devices[_deviceAddress].isRegistered = true;\r\n        allDevices.push(_deviceAddress);\r\n    }\r\n\r\n    // Add a manager to an existing device\r\n    function addManagerToDevice(address _managerAddress, address _deviceAddress) public {\r\n        require(managers[_managerAddress].isRegistered, \"Manager is not registered.\");\r\n        require(devices[_deviceAddress].isRegistered, \"Device is not registered.\");\r\n        require(!isManagerOfDevice(_managerAddress, _deviceAddress), \"Already a manager of the device.\");\r\n        devices[_deviceAddress].managers.push(_managerAddress);\r\n    }\r\n\r\n    // Remove a manager from a device\r\n    function removeManagerFromDevice(address _managerAddress, address _deviceAddress) public {\r\n        require(isManagerOfDevice(_managerAddress, _deviceAddress), \"Not a manager of the device.\");\r\n        require(devices[_deviceAddress].managers.length > 1, \"Cannot remove the last manager.\");\r\n\r\n        uint managerIndex = 0;\r\n        bool managerFound = false;\r\n        for (uint i = 0; i < devices[_deviceAddress].managers.length; i++) {\r\n            if (devices[_deviceAddress].managers[i] == _managerAddress) {\r\n                managerIndex = i;\r\n                managerFound = true;\r\n                break;\r\n            }\r\n        }\r\n\r\n        require(managerFound, \"Manager not found.\");\r\n\r\n        for (uint i = managerIndex; i < devices[_deviceAddress].managers.length - 1; i++) {\r\n            devices[_deviceAddress].managers[i] = devices[_deviceAddress].managers[i + 1];\r\n        }\r\n        devices[_deviceAddress].managers.pop();\r\n    }\r\n\r\n    // Add access control permissions\r\n    function addAccessControl(address _managerAddress, address _subjectDevice, address _objectDevice, string memory _resource, string memory _permissionType, uint _expirationTime) public {\r\n        require(isManagerOfDevice(_managerAddress, _subjectDevice), \"Not a manager of the subject device.\");\r\n        bytes32 permissionKey = keccak256(abi.encodePacked(_subjectDevice, _objectDevice, _resource));\r\n        permissions[permissionKey] = Permission({\r\n        subjectDevice: _subjectDevice,\r\n        objectDevice: _objectDevice,\r\n        resource: _resource,\r\n        permissionType: _permissionType,\r\n        expirationTime: _expirationTime\r\n        });\r\n        allPermissions.push(permissionKey);\r\n    }\r\n\r\n    // Deregister a manager\r\n    function deregisterManager(address _managerAddress) public {\r\n        require(managers[_managerAddress].isRegistered, \"Manager is not registered.\");\r\n        managers[_managerAddress].isRegistered = false;\r\n    }\r\n\r\n    // Deregister a device\r\n    function deregisterDevice(address _deviceAddress) public {\r\n        require(devices[_deviceAddress].isRegistered, \"Device is not registered.\");\r\n        devices[_deviceAddress].isRegistered = false;\r\n        delete devices[_deviceAddress].managers;\r\n    }\r\n\r\n    // Revoke permission\r\n    function revokePermission(address _subjectDevice, address _objectDevice, string memory _resource) public {\r\n        bytes32 permissionKey = keccak256(abi.encodePacked(_subjectDevice, _objectDevice, _resource));\r\n        // Verificar si el permiso existe\r\n        require(permissions[permissionKey].subjectDevice != address(0), \"Permission does not exist.\");\r\n        // Verificar si el permiso ha expirado\r\n        require(permissions[permissionKey].expirationTime < block.timestamp, \"Permission already expired.\");\r\n        delete permissions[permissionKey];\r\n    }\r\n\r\n    // Query manager\r\n    function queryManager(address _managerAddress) public view returns (address[] memory) {\r\n        require(managers[_managerAddress].isRegistered, \"Manager is not registered.\");\r\n        uint deviceCount = 0;\r\n\r\n        // Contar el nmero de dispositivos\r\n        for (uint i = 0; i < allDevices.length; ++i) {\r\n            if (isManagerOfDevice(_managerAddress, allDevices[i])) {\r\n                deviceCount++;\r\n            }\r\n        }\r\n\r\n        // Recopilar las direcciones de los dispositivos\r\n        address[] memory managedDevices = new address[](deviceCount);\r\n        uint counter = 0;\r\n        for (uint i = 0; i < allDevices.length; ++i) {\r\n            if (isManagerOfDevice(_managerAddress, allDevices[i])) {\r\n                managedDevices[counter] = allDevices[i];\r\n                counter++;\r\n            }\r\n        }\r\n\r\n        return managedDevices;\r\n    }\r\n\r\n    // Query permission\r\n    function queryPermission(address _deviceAddress) public view returns (Permission[] memory) {\r\n        require(devices[_deviceAddress].isRegistered, \"Device is not registered.\");\r\n        uint permissionCount = 0;\r\n\r\n        // Contar el nmero de permisos\r\n        for (uint i = 0; i < allPermissions.length; ++i) {\r\n            if (permissions[allPermissions[i]].subjectDevice == _deviceAddress) {\r\n                permissionCount++;\r\n            }\r\n        }\r\n\r\n        // Recopilar los permisos\r\n        Permission[] memory devicePermissions = new Permission[](permissionCount);\r\n        uint counter = 0;\r\n        for (uint i = 0; i < allPermissions.length; ++i) {\r\n            if (permissions[allPermissions[i]].subjectDevice == _deviceAddress) {\r\n                devicePermissions[counter] = permissions[allPermissions[i]];\r\n                counter++;\r\n            }\r\n        }\r\n\r\n        return devicePermissions;\r\n    }\r\n\r\n    // Note: allDevices y allPermissions son arrays que necesitas mantener actualizados cuando agregues o quites dispositivos y permisos.\r\n    address[] private allDevices;\r\n    bytes32[] private allPermissions;\r\n\r\n    // Helper function to check if an address is a manager of a device\r\n    function isManagerOfDevice(address _managerAddress, address _deviceAddress) internal view returns (bool) {\r\n        for (uint i = 0; i < devices[_deviceAddress].managers.length; i++) {\r\n            if (devices[_deviceAddress].managers[i] == _managerAddress) {\r\n                return true;\r\n            }\r\n        }\r\n        return false;\r\n    }\r\n}\r\n",
  "sourcePath": "C:\\Users\\seerg\\Desktop\\Test\\contracts\\IoTAccessControl.sol",
  "compiler": {
    "name": "solc",
    "version": "0.8.13+commit.abaa5c0e.Emscripten.clang"
  },
  "schemaVersion": "3.4.16",
  "updatedAt": "2023-12-31T10:46:28.388Z",
  "networkType": "ethereum",
  "devdoc": {
    "kind": "dev",
    "methods": {},
    "version": 1
  },
  "userdoc": {
    "kind": "user",
    "methods": {},
    "version": 1
  }
}